{
  "contractName": "Aave",
  "abi": [
    {
      "inputs": [
        {
          "internalType": "address",
          "name": "_dai",
          "type": "address"
        }
      ],
      "payable": false,
      "stateMutability": "nonpayable",
      "type": "constructor"
    },
    {
      "constant": true,
      "inputs": [],
      "name": "dai",
      "outputs": [
        {
          "internalType": "contract IDAI",
          "name": "",
          "type": "address"
        }
      ],
      "payable": false,
      "stateMutability": "view",
      "type": "function"
    },
    {
      "constant": true,
      "inputs": [
        {
          "internalType": "uint256",
          "name": "",
          "type": "uint256"
        }
      ],
      "name": "stakers",
      "outputs": [
        {
          "internalType": "address",
          "name": "",
          "type": "address"
        }
      ],
      "payable": false,
      "stateMutability": "view",
      "type": "function"
    },
    {
      "constant": false,
      "inputs": [],
      "name": "reward",
      "outputs": [],
      "payable": false,
      "stateMutability": "nonpayable",
      "type": "function"
    },
    {
      "constant": true,
      "inputs": [
        {
          "internalType": "address",
          "name": "_address",
          "type": "address"
        }
      ],
      "name": "balance",
      "outputs": [
        {
          "internalType": "uint256",
          "name": "",
          "type": "uint256"
        }
      ],
      "payable": false,
      "stateMutability": "view",
      "type": "function"
    },
    {
      "constant": false,
      "inputs": [
        {
          "internalType": "uint256",
          "name": "_amount",
          "type": "uint256"
        }
      ],
      "name": "deposit",
      "outputs": [
        {
          "internalType": "bool",
          "name": "success",
          "type": "bool"
        }
      ],
      "payable": true,
      "stateMutability": "payable",
      "type": "function"
    },
    {
      "constant": false,
      "inputs": [
        {
          "internalType": "uint256",
          "name": "_amount",
          "type": "uint256"
        }
      ],
      "name": "withdrawal",
      "outputs": [],
      "payable": false,
      "stateMutability": "nonpayable",
      "type": "function"
    }
  ],
  "bytecode": "0x60806040526040518060400160405280600481526020017f41415645000000000000000000000000000000000000000000000000000000008152506000908051906020019061004f929190610128565b506040518060400160405280600581526020017f61555344430000000000000000000000000000000000000000000000000000008152506001908051906020019061009b929190610128565b5060006002553480156100ad57600080fd5b50604051610954380380610954833981810160405260208110156100d057600080fd5b810190808051906020019092919050505080600360006101000a81548173ffffffffffffffffffffffffffffffffffffffff021916908373ffffffffffffffffffffffffffffffffffffffff160217905550506101cd565b828054600181600116156101000203166002900490600052602060002090601f016020900481019282601f1061016957805160ff1916838001178555610197565b82800160010185558215610197579182015b8281111561019657825182559160200191906001019061017b565b5b5090506101a491906101a8565b5090565b6101ca91905b808211156101c65760008160009055506001016101ae565b5090565b90565b610778806101dc6000396000f3fe6080604052600436106100555760003560e01c8063228cb7331461005a578063835fc6ca14610071578063b6b55f25146100ac578063e3d670d7146100f2578063f4b9fa7514610157578063fd5e6dd1146101ae575b600080fd5b34801561006657600080fd5b5061006f610229565b005b34801561007d57600080fd5b506100aa6004803603602081101561009457600080fd5b8101908080359060200190929190505050610325565b005b6100d8600480360360208110156100c257600080fd5b81019080803590602001909291905050506104b1565b604051808215151515815260200191505060405180910390f35b3480156100fe57600080fd5b506101416004803603602081101561011557600080fd5b81019080803573ffffffffffffffffffffffffffffffffffffffff169060200190929190505050610693565b6040518082815260200191505060405180910390f35b34801561016357600080fd5b5061016c6106e1565b604051808273ffffffffffffffffffffffffffffffffffffffff1673ffffffffffffffffffffffffffffffffffffffff16815260200191505060405180910390f35b3480156101ba57600080fd5b506101e7600480360360208110156101d157600080fd5b8101908080359060200190929190505050610707565b604051808273ffffffffffffffffffffffffffffffffffffffff1673ffffffffffffffffffffffffffffffffffffffff16815260200191505060405180910390f35b60008090505b6004805490508110156103225760006004828154811061024b57fe5b9060005260206000200160009054906101000a900473ffffffffffffffffffffffffffffffffffffffff1690506000600560008373ffffffffffffffffffffffffffffffffffffffff1673ffffffffffffffffffffffffffffffffffffffff168152602001908152602001600020549050600a81816102c657fe5b04600560008473ffffffffffffffffffffffffffffffffffffffff1673ffffffffffffffffffffffffffffffffffffffff168152602001908152602001600020600082825401925050819055505050808060010191505061022f565b50565b80600560003373ffffffffffffffffffffffffffffffffffffffff1673ffffffffffffffffffffffffffffffffffffffff16815260200190815260200160002054101561037157600080fd5b80600560003373ffffffffffffffffffffffffffffffffffffffff1673ffffffffffffffffffffffffffffffffffffffff168152602001908152602001600020600082825403925050819055508060025403600281905550600360009054906101000a900473ffffffffffffffffffffffffffffffffffffffff1673ffffffffffffffffffffffffffffffffffffffff1663a9059cbb33836040518363ffffffff1660e01b8152600401808373ffffffffffffffffffffffffffffffffffffffff1673ffffffffffffffffffffffffffffffffffffffff16815260200182815260200192505050602060405180830381600087803b15801561047257600080fd5b505af1158015610486573d6000803e3d6000fd5b505050506040513d602081101561049c57600080fd5b81019080805190602001909291905050505050565b6000600360009054906101000a900473ffffffffffffffffffffffffffffffffffffffff1673ffffffffffffffffffffffffffffffffffffffff166323b872dd3330856040518463ffffffff1660e01b8152600401808473ffffffffffffffffffffffffffffffffffffffff1673ffffffffffffffffffffffffffffffffffffffff1681526020018373ffffffffffffffffffffffffffffffffffffffff1673ffffffffffffffffffffffffffffffffffffffff1681526020018281526020019350505050602060405180830381600087803b15801561059057600080fd5b505af11580156105a4573d6000803e3d6000fd5b505050506040513d60208110156105ba57600080fd5b81019080805190602001909291905050505081600560003373ffffffffffffffffffffffffffffffffffffffff1673ffffffffffffffffffffffffffffffffffffffff1681526020019081526020016000206000828254019250508190555060043390806001815401808255809150509060018203906000526020600020016000909192909190916101000a81548173ffffffffffffffffffffffffffffffffffffffff021916908373ffffffffffffffffffffffffffffffffffffffff16021790555050816002540160028190555060019050919050565b600080600560008473ffffffffffffffffffffffffffffffffffffffff1673ffffffffffffffffffffffffffffffffffffffff16815260200190815260200160002054905080915050919050565b600360009054906101000a900473ffffffffffffffffffffffffffffffffffffffff1681565b6004818154811061071457fe5b906000526020600020016000915054906101000a900473ffffffffffffffffffffffffffffffffffffffff168156fea265627a7a723158203b44660f4dffe0f2e315780a21ad967f59b5d23f6cc61e89a5d76a73a276af4b64736f6c63430005100032",
  "source": "pragma solidity >=0.4.21 <0.7.4;\r\n\r\ninterface IDAI {\r\n    function transfer(address _to, uint256 _value) external returns (bool success) ;\r\n    function transferFrom(address _from, address _to, uint256 _value) external returns (bool success) ;\r\n}\r\n\r\ncontract Aave {\r\n\r\n    string name = 'AAVE';\r\n    string symbol = 'aUSDC';\r\n    uint supply = 0;\r\n    IDAI public dai;\r\n\r\n    address[] public stakers;\r\n\r\n\r\n    mapping (address =>  uint) balanceOf;\r\n\r\n    constructor(address _dai) public {\r\n        dai = IDAI(_dai);\r\n    }\r\n\r\n    function reward() external {\r\n        for( uint i=0; i < stakers.length; i++){\r\n            address staker = stakers[i];\r\n            uint bal = balanceOf[staker];\r\n            balanceOf[staker] += (bal / 10 );\r\n        }\r\n    }\r\n\r\n    function balance(address _address) external view returns (uint){\r\n        uint bal = balanceOf[_address];\r\n        return bal;\r\n    }\r\n\r\n    function deposit(uint _amount) external payable returns (bool success) {\r\n        dai.transferFrom(msg.sender, address(this), _amount);\r\n        balanceOf[msg.sender] += _amount;\r\n        stakers.push(msg.sender);\r\n        supply = supply + _amount;\r\n        return true;\r\n    }\r\n\r\n    function withdrawal(uint _amount) external {\r\n       require(balanceOf[msg.sender] >= _amount);\r\n       \r\n       balanceOf[msg.sender] -= _amount;\r\n       supply = supply - _amount;\r\n\r\n       dai.transfer(msg.sender, _amount);\r\n    }  \r\n\r\n\r\n}",
  "sourcePath": "C:\\Users\\brad\\blackbit-react-truffle\\contracts\\Aave.sol",
  "compiler": {
    "name": "solc",
    "version": "0.5.16+commit.9c3226ce.Emscripten.clang"
  },
  "schemaVersion": "3.4.3",
  "updatedAt": "2021-11-09T23:42:20.006Z",
  "networkType": "ethereum",
  "devdoc": {
    "methods": {}
  },
  "userdoc": {
    "methods": {}
  }
}