{
  "contractName": "Fund",
  "abi": [
    {
      "inputs": [
        {
          "internalType": "contract BBMM",
          "name": "_bbmm",
          "type": "address"
        },
        {
          "internalType": "address",
          "name": "_dai",
          "type": "address"
        },
        {
          "internalType": "address",
          "name": "_aave",
          "type": "address"
        },
        {
          "internalType": "address",
          "name": "_yearn",
          "type": "address"
        }
      ],
      "payable": false,
      "stateMutability": "nonpayable",
      "type": "constructor"
    },
    {
      "payable": true,
      "stateMutability": "payable",
      "type": "fallback"
    },
    {
      "constant": true,
      "inputs": [],
      "name": "aave",
      "outputs": [
        {
          "internalType": "contract IAave",
          "name": "",
          "type": "address"
        }
      ],
      "payable": false,
      "stateMutability": "view",
      "type": "function"
    },
    {
      "constant": true,
      "inputs": [],
      "name": "aaveBalance",
      "outputs": [
        {
          "internalType": "uint256",
          "name": "",
          "type": "uint256"
        }
      ],
      "payable": false,
      "stateMutability": "view",
      "type": "function"
    },
    {
      "constant": true,
      "inputs": [
        {
          "internalType": "uint256",
          "name": "",
          "type": "uint256"
        }
      ],
      "name": "allocations",
      "outputs": [
        {
          "internalType": "uint256",
          "name": "",
          "type": "uint256"
        }
      ],
      "payable": false,
      "stateMutability": "view",
      "type": "function"
    },
    {
      "constant": true,
      "inputs": [],
      "name": "bbmm",
      "outputs": [
        {
          "internalType": "contract BBMM",
          "name": "",
          "type": "address"
        }
      ],
      "payable": false,
      "stateMutability": "view",
      "type": "function"
    },
    {
      "constant": true,
      "inputs": [],
      "name": "dai",
      "outputs": [
        {
          "internalType": "contract Idai",
          "name": "",
          "type": "address"
        }
      ],
      "payable": false,
      "stateMutability": "view",
      "type": "function"
    },
    {
      "constant": true,
      "inputs": [],
      "name": "daiBalance",
      "outputs": [
        {
          "internalType": "uint256",
          "name": "",
          "type": "uint256"
        }
      ],
      "payable": false,
      "stateMutability": "view",
      "type": "function"
    },
    {
      "constant": true,
      "inputs": [],
      "name": "ethBalance",
      "outputs": [
        {
          "internalType": "uint256",
          "name": "",
          "type": "uint256"
        }
      ],
      "payable": false,
      "stateMutability": "view",
      "type": "function"
    },
    {
      "constant": true,
      "inputs": [],
      "name": "fundBalance",
      "outputs": [
        {
          "internalType": "uint256",
          "name": "",
          "type": "uint256"
        }
      ],
      "payable": false,
      "stateMutability": "view",
      "type": "function"
    },
    {
      "constant": true,
      "inputs": [],
      "name": "fundOwns",
      "outputs": [
        {
          "internalType": "uint256",
          "name": "",
          "type": "uint256"
        }
      ],
      "payable": false,
      "stateMutability": "view",
      "type": "function"
    },
    {
      "constant": true,
      "inputs": [
        {
          "internalType": "uint256",
          "name": "",
          "type": "uint256"
        }
      ],
      "name": "funds",
      "outputs": [
        {
          "internalType": "string",
          "name": "",
          "type": "string"
        }
      ],
      "payable": false,
      "stateMutability": "view",
      "type": "function"
    },
    {
      "constant": true,
      "inputs": [],
      "name": "isAllowed",
      "outputs": [
        {
          "internalType": "bool",
          "name": "",
          "type": "bool"
        }
      ],
      "payable": false,
      "stateMutability": "view",
      "type": "function"
    },
    {
      "constant": true,
      "inputs": [],
      "name": "lastPerfomancePPS",
      "outputs": [
        {
          "internalType": "uint256",
          "name": "",
          "type": "uint256"
        }
      ],
      "payable": false,
      "stateMutability": "view",
      "type": "function"
    },
    {
      "constant": true,
      "inputs": [],
      "name": "managementFee",
      "outputs": [
        {
          "internalType": "uint256",
          "name": "",
          "type": "uint256"
        }
      ],
      "payable": false,
      "stateMutability": "view",
      "type": "function"
    },
    {
      "constant": true,
      "inputs": [],
      "name": "name",
      "outputs": [
        {
          "internalType": "string",
          "name": "",
          "type": "string"
        }
      ],
      "payable": false,
      "stateMutability": "view",
      "type": "function"
    },
    {
      "constant": true,
      "inputs": [],
      "name": "owner",
      "outputs": [
        {
          "internalType": "address payable",
          "name": "",
          "type": "address"
        }
      ],
      "payable": false,
      "stateMutability": "view",
      "type": "function"
    },
    {
      "constant": true,
      "inputs": [],
      "name": "performanceFee",
      "outputs": [
        {
          "internalType": "uint256",
          "name": "",
          "type": "uint256"
        }
      ],
      "payable": false,
      "stateMutability": "view",
      "type": "function"
    },
    {
      "constant": true,
      "inputs": [],
      "name": "pps",
      "outputs": [
        {
          "internalType": "uint256",
          "name": "",
          "type": "uint256"
        }
      ],
      "payable": false,
      "stateMutability": "view",
      "type": "function"
    },
    {
      "constant": true,
      "inputs": [],
      "name": "toCharge",
      "outputs": [
        {
          "internalType": "uint256",
          "name": "",
          "type": "uint256"
        }
      ],
      "payable": false,
      "stateMutability": "view",
      "type": "function"
    },
    {
      "constant": true,
      "inputs": [],
      "name": "yearn",
      "outputs": [
        {
          "internalType": "contract IYearn",
          "name": "",
          "type": "address"
        }
      ],
      "payable": false,
      "stateMutability": "view",
      "type": "function"
    },
    {
      "constant": true,
      "inputs": [],
      "name": "yearnBalance",
      "outputs": [
        {
          "internalType": "uint256",
          "name": "",
          "type": "uint256"
        }
      ],
      "payable": false,
      "stateMutability": "view",
      "type": "function"
    },
    {
      "constant": false,
      "inputs": [
        {
          "internalType": "string",
          "name": "_fund",
          "type": "string"
        },
        {
          "internalType": "uint256",
          "name": "_allocation",
          "type": "uint256"
        }
      ],
      "name": "createAllocation",
      "outputs": [
        {
          "internalType": "bool",
          "name": "success",
          "type": "bool"
        }
      ],
      "payable": false,
      "stateMutability": "nonpayable",
      "type": "function"
    },
    {
      "constant": false,
      "inputs": [
        {
          "internalType": "uint256",
          "name": "_fee",
          "type": "uint256"
        }
      ],
      "name": "setManagementFee",
      "outputs": [
        {
          "internalType": "uint256",
          "name": "",
          "type": "uint256"
        }
      ],
      "payable": false,
      "stateMutability": "nonpayable",
      "type": "function"
    },
    {
      "constant": false,
      "inputs": [
        {
          "internalType": "uint256",
          "name": "_fee",
          "type": "uint256"
        }
      ],
      "name": "setPerformanceFee",
      "outputs": [
        {
          "internalType": "uint256",
          "name": "",
          "type": "uint256"
        }
      ],
      "payable": false,
      "stateMutability": "nonpayable",
      "type": "function"
    },
    {
      "constant": false,
      "inputs": [],
      "name": "getBalance",
      "outputs": [
        {
          "internalType": "uint256",
          "name": "",
          "type": "uint256"
        }
      ],
      "payable": false,
      "stateMutability": "nonpayable",
      "type": "function"
    },
    {
      "constant": false,
      "inputs": [],
      "name": "PPS",
      "outputs": [
        {
          "internalType": "uint256",
          "name": "",
          "type": "uint256"
        }
      ],
      "payable": false,
      "stateMutability": "nonpayable",
      "type": "function"
    },
    {
      "constant": false,
      "inputs": [],
      "name": "payOwner",
      "outputs": [
        {
          "internalType": "uint256",
          "name": "",
          "type": "uint256"
        }
      ],
      "payable": false,
      "stateMutability": "nonpayable",
      "type": "function"
    },
    {
      "constant": false,
      "inputs": [],
      "name": "chargeManagementFee",
      "outputs": [
        {
          "internalType": "uint256",
          "name": "",
          "type": "uint256"
        }
      ],
      "payable": false,
      "stateMutability": "nonpayable",
      "type": "function"
    },
    {
      "constant": false,
      "inputs": [],
      "name": "chargePerformanceFee",
      "outputs": [
        {
          "internalType": "uint256",
          "name": "",
          "type": "uint256"
        }
      ],
      "payable": false,
      "stateMutability": "nonpayable",
      "type": "function"
    },
    {
      "constant": false,
      "inputs": [
        {
          "internalType": "uint256",
          "name": "_amount",
          "type": "uint256"
        }
      ],
      "name": "deposit",
      "outputs": [
        {
          "internalType": "bool",
          "name": "success",
          "type": "bool"
        }
      ],
      "payable": true,
      "stateMutability": "payable",
      "type": "function"
    },
    {
      "constant": false,
      "inputs": [
        {
          "internalType": "uint256",
          "name": "_amount",
          "type": "uint256"
        }
      ],
      "name": "depositDai",
      "outputs": [],
      "payable": false,
      "stateMutability": "nonpayable",
      "type": "function"
    },
    {
      "constant": false,
      "inputs": [
        {
          "internalType": "uint256",
          "name": "_amount",
          "type": "uint256"
        }
      ],
      "name": "withdrawal",
      "outputs": [
        {
          "internalType": "bool",
          "name": "success",
          "type": "bool"
        }
      ],
      "payable": false,
      "stateMutability": "nonpayable",
      "type": "function"
    }
  ],
  "bytecode": "0x60806040526040518060400160405280601581526020017f426c61636b426974204d6f6e6579204d61726b6574000000000000000000000081525060009080519060200190620000519291906200023d565b50600060035560006004556000600c556000600e556103e8600f556001601060006101000a81548160ff02191690831515021790555060006011553480156200009957600080fd5b5060405162002b1038038062002b1083398181016040526080811015620000bf57600080fd5b810190808051906020019092919080519060200190929190805190602001909291908051906020019092919050505033600260006101000a81548173ffffffffffffffffffffffffffffffffffffffff021916908373ffffffffffffffffffffffffffffffffffffffff16021790555083600160006101000a81548173ffffffffffffffffffffffffffffffffffffffff021916908373ffffffffffffffffffffffffffffffffffffffff16021790555082600560006101000a81548173ffffffffffffffffffffffffffffffffffffffff021916908373ffffffffffffffffffffffffffffffffffffffff16021790555081600660006101000a81548173ffffffffffffffffffffffffffffffffffffffff021916908373ffffffffffffffffffffffffffffffffffffffff16021790555080600760006101000a81548173ffffffffffffffffffffffffffffffffffffffff021916908373ffffffffffffffffffffffffffffffffffffffff16021790555050505050620002ec565b828054600181600116156101000203166002900490600052602060002090601f016020900481019282601f106200028057805160ff1916838001178555620002b1565b82800160010185558215620002b1579182015b82811115620002b057825182559160200191906001019062000293565b5b509050620002c09190620002c4565b5090565b620002e991905b80821115620002e5576000816000905550600101620002cb565b5090565b90565b61281480620002fc6000396000f3fe6080604052600436106101d75760003560e01c80636aafb720116101025780639585694511610095578063b6b55f2511610064578063b6b55f2514610901578063d3a8d71814610947578063f4b9fa7514610972578063fe56e232146109c9576101d7565b806395856945146108515780639c161ab01461087c578063a21fbc92146108a7578063a6f7f5d6146108d6576101d7565b8063835fc6ca116100d1578063835fc6ca146106d457806386cdc14a1461072757806387788782146107cf5780638da5cb5b146107fa576101d7565b80636aafb7201461054f57806370897b231461057a5780637b8e8895146105c9578063819faf7b1461067d576101d7565b806324f120bd1161017a5780633c067945116101495780633c067945146104a35780634e6630b0146104ce5780634e8963b8146104f95780636024f26e14610524576101d7565b806324f120bd146103e75780632a1d5e47146104125780633335a2b81461043d57806335842f7414610468576101d7565b80630a2642bf116101b65780630a2642bf146102eb5780630bbac9511461033a5780630e7bb7071461039157806312065fe0146103bc576101d7565b806218b1d3146101d9578063020c6a311461020457806306fdde031461025b575b005b3480156101e557600080fd5b506101ee610a18565b6040518082815260200191505060405180910390f35b34801561021057600080fd5b50610219610a1e565b604051808273ffffffffffffffffffffffffffffffffffffffff1673ffffffffffffffffffffffffffffffffffffffff16815260200191505060405180910390f35b34801561026757600080fd5b50610270610a44565b6040518080602001828103825283818151815260200191508051906020019080838360005b838110156102b0578082015181840152602081019050610295565b50505050905090810190601f1680156102dd5780820380516001836020036101000a031916815260200191505b509250505060405180910390f35b3480156102f757600080fd5b506103246004803603602081101561030e57600080fd5b8101908080359060200190929190505050610ae2565b6040518082815260200191505060405180910390f35b34801561034657600080fd5b5061034f610b03565b604051808273ffffffffffffffffffffffffffffffffffffffff1673ffffffffffffffffffffffffffffffffffffffff16815260200191505060405180910390f35b34801561039d57600080fd5b506103a6610b29565b6040518082815260200191505060405180910390f35b3480156103c857600080fd5b506103d1610b2f565b6040518082815260200191505060405180910390f35b3480156103f357600080fd5b506103fc610df0565b6040518082815260200191505060405180910390f35b34801561041e57600080fd5b50610427610df6565b6040518082815260200191505060405180910390f35b34801561044957600080fd5b50610452610dfc565b6040518082815260200191505060405180910390f35b34801561047457600080fd5b506104a16004803603602081101561048b57600080fd5b8101908080359060200190929190505050610f9d565b005b3480156104af57600080fd5b506104b86111bc565b6040518082815260200191505060405180910390f35b3480156104da57600080fd5b506104e36111c2565b6040518082815260200191505060405180910390f35b34801561050557600080fd5b5061050e6111c8565b6040518082815260200191505060405180910390f35b34801561053057600080fd5b506105396112ac565b6040518082815260200191505060405180910390f35b34801561055b57600080fd5b506105646112b2565b6040518082815260200191505060405180910390f35b34801561058657600080fd5b506105b36004803603602081101561059d57600080fd5b81019080803590602001909291905050506112b8565b6040518082815260200191505060405180910390f35b3480156105d557600080fd5b50610602600480360360208110156105ec57600080fd5b8101908080359060200190929190505050611325565b6040518080602001828103825283818151815260200191508051906020019080838360005b83811015610642578082015181840152602081019050610627565b50505050905090810190601f16801561066f5780820380516001836020036101000a031916815260200191505b509250505060405180910390f35b34801561068957600080fd5b506106926113de565b604051808273ffffffffffffffffffffffffffffffffffffffff1673ffffffffffffffffffffffffffffffffffffffff16815260200191505060405180910390f35b3480156106e057600080fd5b5061070d600480360360208110156106f757600080fd5b8101908080359060200190929190505050611404565b604051808215151515815260200191505060405180910390f35b34801561073357600080fd5b506107b56004803603604081101561074a57600080fd5b810190808035906020019064010000000081111561076757600080fd5b82018360208201111561077957600080fd5b8035906020019184600183028401116401000000008311171561079b57600080fd5b909192939192939080359060200190929190505050611740565b604051808215151515815260200191505060405180910390f35b3480156107db57600080fd5b506107e4611815565b6040518082815260200191505060405180910390f35b34801561080657600080fd5b5061080f61181b565b604051808273ffffffffffffffffffffffffffffffffffffffff1673ffffffffffffffffffffffffffffffffffffffff16815260200191505060405180910390f35b34801561085d57600080fd5b50610866611841565b6040518082815260200191505060405180910390f35b34801561088857600080fd5b506108916119a3565b6040518082815260200191505060405180910390f35b3480156108b357600080fd5b506108bc6119a9565b604051808215151515815260200191505060405180910390f35b3480156108e257600080fd5b506108eb6119bc565b6040518082815260200191505060405180910390f35b61092d6004803603602081101561091757600080fd5b81019080803590602001909291905050506119c2565b604051808215151515815260200191505060405180910390f35b34801561095357600080fd5b5061095c611b2c565b6040518082815260200191505060405180910390f35b34801561097e57600080fd5b50610987611bb1565b604051808273ffffffffffffffffffffffffffffffffffffffff1673ffffffffffffffffffffffffffffffffffffffff16815260200191505060405180910390f35b3480156109d557600080fd5b50610a02600480360360208110156109ec57600080fd5b8101908080359060200190929190505050611bd7565b6040518082815260200191505060405180910390f35b600d5481565b600160009054906101000a900473ffffffffffffffffffffffffffffffffffffffff1681565b60008054600181600116156101000203166002900480601f016020809104026020016040519081016040528092919081815260200182805460018160011615610100020316600290048015610ada5780601f10610aaf57610100808354040283529160200191610ada565b820191906000526020600020905b815481529060010190602001808311610abd57829003601f168201915b505050505081565b60138181548110610aef57fe5b906000526020600020016000915090505481565b600760009054906101000a900473ffffffffffffffffffffffffffffffffffffffff1681565b600c5481565b6000600660009054906101000a900473ffffffffffffffffffffffffffffffffffffffff1673ffffffffffffffffffffffffffffffffffffffff1663e3d670d7306040518263ffffffff1660e01b8152600401808273ffffffffffffffffffffffffffffffffffffffff1673ffffffffffffffffffffffffffffffffffffffff16815260200191505060206040518083038186803b158015610bd057600080fd5b505afa158015610be4573d6000803e3d6000fd5b505050506040513d6020811015610bfa57600080fd5b8101908080519060200190929190505050600381905550600760009054906101000a900473ffffffffffffffffffffffffffffffffffffffff1673ffffffffffffffffffffffffffffffffffffffff1663e3d670d7306040518263ffffffff1660e01b8152600401808273ffffffffffffffffffffffffffffffffffffffff1673ffffffffffffffffffffffffffffffffffffffff16815260200191505060206040518083038186803b158015610cb057600080fd5b505afa158015610cc4573d6000803e3d6000fd5b505050506040513d6020811015610cda57600080fd5b8101908080519060200190929190505050600481905550600560009054906101000a900473ffffffffffffffffffffffffffffffffffffffff1673ffffffffffffffffffffffffffffffffffffffff1663e3d670d7306040518263ffffffff1660e01b8152600401808273ffffffffffffffffffffffffffffffffffffffff1673ffffffffffffffffffffffffffffffffffffffff168152602001915050602060405180830381600087803b158015610d9257600080fd5b505af1158015610da6573d6000803e3d6000fd5b505050506040513d6020811015610dbc57600080fd5b8101908080519060200190929190505050600c81905550601154600454600c54600354010103600a81905550600a54905090565b60045481565b60035481565b6000600260009054906101000a900473ffffffffffffffffffffffffffffffffffffffff1673ffffffffffffffffffffffffffffffffffffffff163373ffffffffffffffffffffffffffffffffffffffff1614610e5857600080fd5b610e60610b2f565b506000601154905080600c541015610e87576000600c5482039050610e8481611c44565b50505b600560009054906101000a900473ffffffffffffffffffffffffffffffffffffffff1673ffffffffffffffffffffffffffffffffffffffff1663a9059cbb600260009054906101000a900473ffffffffffffffffffffffffffffffffffffffff16836040518363ffffffff1660e01b8152600401808373ffffffffffffffffffffffffffffffffffffffff1673ffffffffffffffffffffffffffffffffffffffff16815260200182815260200192505050602060405180830381600087803b158015610f5257600080fd5b505af1158015610f66573d6000803e3d6000fd5b505050506040513d6020811015610f7c57600080fd5b81019080805190602001909291905050505060006011819055508091505090565b60011515601060009054906101000a900460ff16151514610fbd57600080fd5b6000610fc76111c8565b6103e8830281610fd357fe5b049050600560009054906101000a900473ffffffffffffffffffffffffffffffffffffffff1673ffffffffffffffffffffffffffffffffffffffff166323b872dd3330856040518463ffffffff1660e01b8152600401808473ffffffffffffffffffffffffffffffffffffffff1673ffffffffffffffffffffffffffffffffffffffff1681526020018373ffffffffffffffffffffffffffffffffffffffff1673ffffffffffffffffffffffffffffffffffffffff1681526020018281526020019350505050602060405180830381600087803b1580156110b357600080fd5b505af11580156110c7573d6000803e3d6000fd5b505050506040513d60208110156110dd57600080fd5b810190808051906020019092919050505050600160009054906101000a900473ffffffffffffffffffffffffffffffffffffffff1673ffffffffffffffffffffffffffffffffffffffff1663688e89c133836040518363ffffffff1660e01b8152600401808373ffffffffffffffffffffffffffffffffffffffff1673ffffffffffffffffffffffffffffffffffffffff16815260200182815260200192505050600060405180830381600087803b15801561119857600080fd5b505af11580156111ac573d6000803e3d6000fd5b505050506111b861234c565b5050565b600a5481565b600b5481565b600080600160009054906101000a900473ffffffffffffffffffffffffffffffffffffffff1673ffffffffffffffffffffffffffffffffffffffff1663047fc9aa6040518163ffffffff1660e01b815260040160206040518083038186803b15801561123357600080fd5b505afa158015611247573d6000803e3d6000fd5b505050506040513d602081101561125d57600080fd5b81019080805190602001909291905050509050600081111561129957806103e8611285610b2f565b028161128d57fe5b04600d819055506112a3565b6103e8600d819055505b600d5491505090565b600f5481565b600e5481565b6000600260009054906101000a900473ffffffffffffffffffffffffffffffffffffffff1673ffffffffffffffffffffffffffffffffffffffff163373ffffffffffffffffffffffffffffffffffffffff161461131457600080fd5b816009819055506009549050919050565b6012818154811061133257fe5b906000526020600020016000915090508054600181600116156101000203166002900480601f0160208091040260200160405190810160405280929190818152602001828054600181600116156101000203166002900480156113d65780601f106113ab576101008083540402835291602001916113d6565b820191906000526020600020905b8154815290600101906020018083116113b957829003601f168201915b505050505081565b600660009054906101000a900473ffffffffffffffffffffffffffffffffffffffff1681565b600060011515601060009054906101000a900460ff1615151461142657600080fd5b60006114306111c8565b6103e884028161143c57fe5b04905080600160009054906101000a900473ffffffffffffffffffffffffffffffffffffffff1673ffffffffffffffffffffffffffffffffffffffff166370a08231336040518263ffffffff1660e01b8152600401808273ffffffffffffffffffffffffffffffffffffffff1673ffffffffffffffffffffffffffffffffffffffff16815260200191505060206040518083038186803b1580156114df57600080fd5b505afa1580156114f3573d6000803e3d6000fd5b505050506040513d602081101561150957600080fd5b81019080805190602001909291905050501015611571576040517f08c379a00000000000000000000000000000000000000000000000000000000081526004018080602001828103825260228152602001806127be6022913960400191505060405180910390fd5b600160009054906101000a900473ffffffffffffffffffffffffffffffffffffffff1673ffffffffffffffffffffffffffffffffffffffff1663dce8ef6233836040518363ffffffff1660e01b8152600401808373ffffffffffffffffffffffffffffffffffffffff1673ffffffffffffffffffffffffffffffffffffffff16815260200182815260200192505050600060405180830381600087803b15801561161a57600080fd5b505af115801561162e573d6000803e3d6000fd5b50505050600c54831115611651576000600c548403905061164e81611c44565b50505b600560009054906101000a900473ffffffffffffffffffffffffffffffffffffffff1673ffffffffffffffffffffffffffffffffffffffff1663a9059cbb33856040518363ffffffff1660e01b8152600401808373ffffffffffffffffffffffffffffffffffffffff1673ffffffffffffffffffffffffffffffffffffffff16815260200182815260200192505050602060405180830381600087803b1580156116fa57600080fd5b505af115801561170e573d6000803e3d6000fd5b505050506040513d602081101561172457600080fd5b8101908080519060200190929190505050506001915050919050565b6000600260009054906101000a900473ffffffffffffffffffffffffffffffffffffffff1673ffffffffffffffffffffffffffffffffffffffff163373ffffffffffffffffffffffffffffffffffffffff161461179c57600080fd5b60128484909180600181540180825580915050906001820390600052602060002001600090919293909192939091929091925091906117dc929190612718565b50506013829080600181540180825580915050906001820390600052602060002001600090919290919091505550600190509392505050565b60095481565b600260009054906101000a900473ffffffffffffffffffffffffffffffffffffffff1681565b6000600260009054906101000a900473ffffffffffffffffffffffffffffffffffffffff1673ffffffffffffffffffffffffffffffffffffffff163373ffffffffffffffffffffffffffffffffffffffff161461189d57600080fd5b60006118a76111c8565b9050600f5481111561199e576000600f548203905060006103e8600160009054906101000a900473ffffffffffffffffffffffffffffffffffffffff1673ffffffffffffffffffffffffffffffffffffffff1663047fc9aa6040518163ffffffff1660e01b815260040160206040518083038186803b15801561192957600080fd5b505afa15801561193d573d6000803e3d6000fd5b505050506040513d602081101561195357600080fd5b810190808051906020019092919050505083028161196d57fe5b0490506000600954828161197d57fe5b049050806011540160118190555083600f81905550809450505050506119a0565b505b90565b60115481565b601060009054906101000a900460ff1681565b60085481565b600060011515601060009054906101000a900460ff161515146119e457600080fd5b81341015611a5a576040517f08c379a000000000000000000000000000000000000000000000000000000000815260040180806020018281038252601b8152602001807f76616c756520646f6573206e6f7420657175616c20616d6f756e74000000000081525060200191505060405180910390fd5b600160009054906101000a900473ffffffffffffffffffffffffffffffffffffffff1673ffffffffffffffffffffffffffffffffffffffff1663688e89c133846040518363ffffffff1660e01b8152600401808373ffffffffffffffffffffffffffffffffffffffff1673ffffffffffffffffffffffffffffffffffffffff16815260200182815260200192505050600060405180830381600087803b158015611b0357600080fd5b505af1158015611b17573d6000803e3d6000fd5b50505050611b2361234c565b60019050919050565b6000600260009054906101000a900473ffffffffffffffffffffffffffffffffffffffff1673ffffffffffffffffffffffffffffffffffffffff163373ffffffffffffffffffffffffffffffffffffffff1614611b8857600080fd5b6000600854611b95610b2f565b81611b9c57fe5b04905080601154016011819055508091505090565b600560009054906101000a900473ffffffffffffffffffffffffffffffffffffffff1681565b6000600260009054906101000a900473ffffffffffffffffffffffffffffffffffffffff1673ffffffffffffffffffffffffffffffffffffffff163373ffffffffffffffffffffffffffffffffffffffff1614611c3357600080fd5b816008819055506008549050919050565b600080829050600060028281611c5657fe5b049050600660009054906101000a900473ffffffffffffffffffffffffffffffffffffffff1673ffffffffffffffffffffffffffffffffffffffff1663e3d670d7306040518263ffffffff1660e01b8152600401808273ffffffffffffffffffffffffffffffffffffffff1673ffffffffffffffffffffffffffffffffffffffff16815260200191505060206040518083038186803b158015611cf857600080fd5b505afa158015611d0c573d6000803e3d6000fd5b505050506040513d6020811015611d2257600080fd5b8101908080519060200190929190505050600381905550600760009054906101000a900473ffffffffffffffffffffffffffffffffffffffff1673ffffffffffffffffffffffffffffffffffffffff1663e3d670d7306040518263ffffffff1660e01b8152600401808273ffffffffffffffffffffffffffffffffffffffff1673ffffffffffffffffffffffffffffffffffffffff16815260200191505060206040518083038186803b158015611dd857600080fd5b505afa158015611dec573d6000803e3d6000fd5b505050506040513d6020811015611e0257600080fd5b81019080805190602001909291905050506004819055506004546003541415611f4a57600660009054906101000a900473ffffffffffffffffffffffffffffffffffffffff1673ffffffffffffffffffffffffffffffffffffffff1663835fc6ca826040518263ffffffff1660e01b815260040180828152602001915050600060405180830381600087803b158015611e9a57600080fd5b505af1158015611eae573d6000803e3d6000fd5b50505050600760009054906101000a900473ffffffffffffffffffffffffffffffffffffffff1673ffffffffffffffffffffffffffffffffffffffff1663835fc6ca826040518263ffffffff1660e01b815260040180828152602001915050600060405180830381600087803b158015611f2757600080fd5b505af1158015611f3b573d6000803e3d6000fd5b50505050600192505050612347565b600454600354111561214757600060045460035403905082811061200157600660009054906101000a900473ffffffffffffffffffffffffffffffffffffffff1673ffffffffffffffffffffffffffffffffffffffff1663835fc6ca846040518263ffffffff1660e01b815260040180828152602001915050600060405180830381600087803b158015611fdd57600080fd5b505af1158015611ff1573d6000803e3d6000fd5b5050505060019350505050612347565b60006002828161200d57fe5b0490506000818401905060008285039050600660009054906101000a900473ffffffffffffffffffffffffffffffffffffffff1673ffffffffffffffffffffffffffffffffffffffff1663835fc6ca836040518263ffffffff1660e01b815260040180828152602001915050600060405180830381600087803b15801561209357600080fd5b505af11580156120a7573d6000803e3d6000fd5b50505050600760009054906101000a900473ffffffffffffffffffffffffffffffffffffffff1673ffffffffffffffffffffffffffffffffffffffff1663835fc6ca826040518263ffffffff1660e01b815260040180828152602001915050600060405180830381600087803b15801561212057600080fd5b505af1158015612134573d6000803e3d6000fd5b5050505060019650505050505050612347565b60035460045411156123445760006004546003540390508281106121fe57600760009054906101000a900473ffffffffffffffffffffffffffffffffffffffff1673ffffffffffffffffffffffffffffffffffffffff1663835fc6ca846040518263ffffffff1660e01b815260040180828152602001915050600060405180830381600087803b1580156121da57600080fd5b505af11580156121ee573d6000803e3d6000fd5b5050505060019350505050612347565b60006002828161220a57fe5b0490506000818401905060008285039050600760009054906101000a900473ffffffffffffffffffffffffffffffffffffffff1673ffffffffffffffffffffffffffffffffffffffff1663835fc6ca836040518263ffffffff1660e01b815260040180828152602001915050600060405180830381600087803b15801561229057600080fd5b505af11580156122a4573d6000803e3d6000fd5b50505050600660009054906101000a900473ffffffffffffffffffffffffffffffffffffffff1673ffffffffffffffffffffffffffffffffffffffff1663835fc6ca826040518263ffffffff1660e01b815260040180828152602001915050600060405180830381600087803b15801561231d57600080fd5b505af1158015612331573d6000803e3d6000fd5b5050505060019650505050505050612347565b50505b919050565b612354610b2f565b506005600a548161236157fe5b04600c54111561238c5760006005600a548161237957fe5b04600c540390506123898161238e565b50505b565b6000806002838161239b57fe5b049050600560009054906101000a900473ffffffffffffffffffffffffffffffffffffffff1673ffffffffffffffffffffffffffffffffffffffff1663095ea7b3600660009054906101000a900473ffffffffffffffffffffffffffffffffffffffff16836040518363ffffffff1660e01b8152600401808373ffffffffffffffffffffffffffffffffffffffff1673ffffffffffffffffffffffffffffffffffffffff16815260200182815260200192505050602060405180830381600087803b15801561246957600080fd5b505af115801561247d573d6000803e3d6000fd5b505050506040513d602081101561249357600080fd5b810190808051906020019092919050505050600560009054906101000a900473ffffffffffffffffffffffffffffffffffffffff1673ffffffffffffffffffffffffffffffffffffffff1663095ea7b3600760009054906101000a900473ffffffffffffffffffffffffffffffffffffffff16836040518363ffffffff1660e01b8152600401808373ffffffffffffffffffffffffffffffffffffffff1673ffffffffffffffffffffffffffffffffffffffff16815260200182815260200192505050602060405180830381600087803b15801561257057600080fd5b505af1158015612584573d6000803e3d6000fd5b505050506040513d602081101561259a57600080fd5b810190808051906020019092919050505050600660009054906101000a900473ffffffffffffffffffffffffffffffffffffffff1673ffffffffffffffffffffffffffffffffffffffff1663b6b55f25826040518263ffffffff1660e01b815260040180828152602001915050602060405180830381600087803b15801561262157600080fd5b505af1158015612635573d6000803e3d6000fd5b505050506040513d602081101561264b57600080fd5b810190808051906020019092919050505050600760009054906101000a900473ffffffffffffffffffffffffffffffffffffffff1673ffffffffffffffffffffffffffffffffffffffff1663b6b55f25826040518263ffffffff1660e01b815260040180828152602001915050602060405180830381600087803b1580156126d257600080fd5b505af11580156126e6573d6000803e3d6000fd5b505050506040513d60208110156126fc57600080fd5b8101908080519060200190929190505050506001915050919050565b828054600181600116156101000203166002900490600052602060002090601f016020900481019282601f1061275957803560ff1916838001178555612787565b82800160010185558215612787579182015b8281111561278657823582559160200191906001019061276b565b5b5090506127949190612798565b5090565b6127ba91905b808211156127b657600081600090555060010161279e565b5090565b9056fe796f75722062616c616e6365206f662062626d6d206973206e6f7420656e6f756768a265627a7a72315820ac40fe7fb2e58e188bf66f88fcf1235857f5851273790836083e79b8180083f264736f6c63430005100032",
  "source": "pragma solidity >=0.4.21 <0.7.4;\n\nimport './BBMM.sol';\n\ninterface IAave {\n    function deposit(uint _amount) external payable returns (bool success);\n    function balance(address _address) external view returns (uint);\n    function withdrawal(uint _amount) external ;\n}   \n\ninterface IYearn {\n    function deposit(uint _amount) external payable returns (bool success);\n    function balance(address _address) external view returns (uint);\n    function withdrawal(uint _amount) external ;\n}\n\ninterface Idai {\n    function transfer(address _to, uint256 _value) external returns (bool success);\n    function transferFrom(address _from, address _to, uint256 _value) external returns (bool success);\n    function approve(address _spender, uint256 _value) external returns (bool success);\n    function balance(address _address) external returns (uint);\n}\n\ncontract Fund {\n\n    string public name = 'BlackBit Money Market';\n    BBMM public bbmm;\n    address payable public owner;\n    \n    uint public aaveBalance = 0;\n    uint public yearnBalance = 0;\n    \n    Idai public dai;\n    IAave public aave;\n    IYearn public yearn;\n    uint public managementFee;\n    uint public performanceFee;\n    uint public fundBalance;\n    uint public ethBalance;\n    uint public daiBalance = 0;\n    uint public pps;\n    uint public toCharge = 0;\n    uint public lastPerfomancePPS = 1000;\n    bool public isAllowed = true;\n    uint public fundOwns = 0;\n\n    string[] public funds;\n    uint[] public allocations;\n\n    //@dev \n    //\n    // create an interface contract that is imported and editable \n\n    modifier onlyOwner {\n        require(msg.sender == owner);\n        _;\n    }\n\n    modifier allowed {\n        require(isAllowed == true);\n        _;\n    }\n\n    constructor(BBMM _bbmm, address _dai, address _aave, address _yearn) public {\n        owner = msg.sender;\n        bbmm = _bbmm;\n        dai = Idai(_dai);\n        aave = IAave(_aave);\n        yearn = IYearn(_yearn);\n        \n    }\n\n    function () external payable {}\n\n    function createAllocation(string calldata _fund, uint _allocation) external onlyOwner returns(bool success) {\n        funds.push(_fund);\n        allocations.push(_allocation);\n\n        return true;\n    }\n\n    // _fee where 1/_fee = % t0 charge/ 1% == 100\n    function setManagementFee(uint _fee) external onlyOwner returns (uint ) {\n        managementFee = _fee;\n        return managementFee;\n    }\n\n    // _fee where 1/_fee = % to charge / 10% = 10\n    function setPerformanceFee(uint _fee) external onlyOwner returns (uint) {\n        performanceFee = _fee;\n        return performanceFee;\n    }\n\n    function getBalance() public returns (uint){\n        aaveBalance = aave.balance(address(this));\n        yearnBalance = yearn.balance(address(this));\n        daiBalance = dai.balance(address(this));\n        fundBalance = aaveBalance + daiBalance + yearnBalance - fundOwns;\n        return fundBalance;\n    }\n\n    //price numerator and denominator 2/1 would be a 100% ror\n    // tokensToWithdrawal * num ) / den\n\n    function PPS() public returns (uint) {\n        //pps = getalance() / bbmm.supply();\n        uint supply = bbmm.supply();\n        if( supply > 0){\n            pps = ((getBalance() * 1000) / supply);\n        } else {\n            pps = 1000;\n        }\n        return pps;\n    }\n\n    function payOwner() external onlyOwner returns (uint) {\n        getBalance();\n        uint pay = fundOwns;\n        if(daiBalance < pay){\n\n            uint diff = pay - daiBalance;\n            _pullFunds(diff);\n        }\n\n        dai.transfer(address(owner), pay);\n    \n        fundOwns = 0;\n\n        return pay;\n\n    }\n\n\n    //@dev\n    //on harvest of reward tokens fundOwns is taken out and sent to owner\n    function chargeManagementFee() external onlyOwner returns (uint) {\n        uint charge = (getBalance() / managementFee);\n        \n        fundOwns = fundOwns + charge;\n        \n        return charge;\n\n    }\n\n    function chargePerformanceFee() external onlyOwner returns (uint) {\n        uint newPPS = PPS();\n        if(newPPS > lastPerfomancePPS) {\n            uint percentGrowth = (newPPS - lastPerfomancePPS);\n            uint growth = ((percentGrowth * bbmm.supply()) / 1000);\n            uint charge = (growth / performanceFee);\n\n            fundOwns = fundOwns + charge;\n            lastPerfomancePPS = newPPS;\n\n            return charge;\n        }\n    }\n\n    function _invest(uint _amount) internal returns (bool success){\n      \n        uint each = _amount / 2;\n\n        dai.approve(address(aave), each);\n        dai.approve(address(yearn), each);\n\n        aave.deposit(each);\n        yearn.deposit(each);\n\n        return true;\n    }\n\n/*\n    function rebalance() external onlyOwner returns (bool success) {\n        isAllowed = false;\n        \n        uint balance = getBalance();\n        string[] memory above;\n        string[] memory below;\n        uint[] memory aboveDiff;\n        uint[] memory belowDiff;\n        for(uint i=0; i < funds.length; i++) {\n            string memory fund = funds[i];\n            uint currentBalance = fund.balance(address(this));\n            uint allocation = ((balance * allocations[i]) / 100 );\n        \n            if(currentBalance > allocation) {\n                uint diff = currentBalance - allocation;\n                above.push(funds[i]);\n                aboveDiff.push(diff);\n            } else if (allocation > currentBalance) {\n                uint diff = allocation - currentBalance;\n                below.push(funds[i]);\n                belowDiff.push(diff);\n            }\n        }\n        for(uint i=0; i < above.length; i++) {\n            string memory n = above[i];\n            n.withdrawal(aboveDiff[i]);\n        }\n        for( uint i=0; i < below.length; i ++) {\n            string memory n = below[i];\n            n.deposit(belowDiff[i]);\n        }\n\n\n        isAllowed = true;\n    }\n    */\n\n    function _checkBalance() internal {\n        getBalance();\n        if(daiBalance > (fundBalance / 5 )){\n            uint diff = daiBalance - (fundBalance / 5);\n            _invest(diff);\n        }\n    }\n\n    function _pullFunds(uint _diff) internal returns (bool success) {\n        uint diff = _diff;\n        uint orNot = diff / 2; \n        aaveBalance = aave.balance(address(this));\n        yearnBalance = yearn.balance(address(this));\n\n        if( aaveBalance == yearnBalance) {\n            aave.withdrawal(orNot);\n            yearn.withdrawal(orNot);\n            \n            return true;\n            \n        } else if (aaveBalance > yearnBalance){\n            uint protDiff = aaveBalance - yearnBalance; \n            if(protDiff >= diff){ \n                aave.withdrawal(diff);\n\n                return true;\n\n            } else {\n                \n                uint toBe = protDiff / 2 ; \n                uint higher = orNot + toBe; \n                uint lower = orNot - toBe; \n\n                aave.withdrawal(higher);\n                yearn.withdrawal(lower);\n\n                return true;\n\n            }\n        } else if(yearnBalance > aaveBalance){\n            uint protDiff = aaveBalance - yearnBalance;\n            if(protDiff >= diff){ \n                yearn.withdrawal(diff);\n\n                return true;\n\n            } else {\n                uint toBe = protDiff / 2 ;\n                uint higher = orNot + toBe;\n                uint lower = orNot - toBe;\n\n                yearn.withdrawal(higher);\n                aave.withdrawal(lower);\n\n                return true;\n\n            }\n        } \n\n    }\n    \n    function deposit(uint _amount) external payable allowed returns (bool success) {\n        require(msg.value >= _amount, 'value does not equal amount');\n\n        bbmm.deposited(msg.sender, _amount);\n\n        _checkBalance();\n        \n        return true;\n\n    }\n\n    // deposit _amount in dollars\n    function depositDai(uint _amount) external allowed {\n        \n        uint shares = ((_amount * 1000) / PPS());\n\n        dai.transferFrom(msg.sender, address(this), _amount);\n\n        bbmm.deposited(msg.sender, shares);\n\n        _checkBalance();\n    }\n\n\n    //send amount in bbmm\n    function withdrawal(uint _amount) external allowed returns(bool success) {\n        uint shares = ((_amount * 1000) / PPS());\n        require(bbmm.balanceOf(msg.sender) >= shares, 'your balance of bbmm is not enough');\n        bbmm.withdrew(msg.sender, shares); \n        if(_amount > daiBalance) {\n            uint diff = _amount - daiBalance;\n            _pullFunds(diff);\n        }\n\n\n        dai.transfer(msg.sender, _amount);\n\n        return true;\n    }\n\n\n}",
  "sourcePath": "C:\\Users\\brad\\blackbit-react-truffle\\contracts\\mmFund.sol",
  "compiler": {
    "name": "solc",
    "version": "0.5.16+commit.9c3226ce.Emscripten.clang"
  },
  "schemaVersion": "3.4.3",
  "updatedAt": "2021-11-09T23:42:19.949Z",
  "networkType": "ethereum",
  "devdoc": {
    "methods": {}
  },
  "userdoc": {
    "methods": {}
  }
}